{
  "_format": "hh-sol-artifact-1",
  "contractName": "CampaignFactory",
  "sourceName": "src/contracts/CampaignFactory.sol",
  "abi": [
    {
      "inputs": [
        {
          "internalType": "uint256",
          "name": "_campaignTax",
          "type": "uint256"
        }
      ],
      "stateMutability": "nonpayable",
      "type": "constructor"
    },
    {
      "anonymous": false,
      "inputs": [
        {
          "indexed": false,
          "internalType": "uint256",
          "name": "id",
          "type": "uint256"
        },
        {
          "indexed": false,
          "internalType": "string",
          "name": "actionType",
          "type": "string"
        },
        {
          "indexed": true,
          "internalType": "address",
          "name": "excutor",
          "type": "address"
        },
        {
          "indexed": false,
          "internalType": "uint256",
          "name": "timestamp",
          "type": "uint256"
        }
      ],
      "name": "Action",
      "type": "event"
    },
    {
      "inputs": [],
      "name": "balance",
      "outputs": [
        {
          "internalType": "uint256",
          "name": "",
          "type": "uint256"
        }
      ],
      "stateMutability": "view",
      "type": "function"
    },
    {
      "inputs": [],
      "name": "campaignCount",
      "outputs": [
        {
          "internalType": "uint256",
          "name": "",
          "type": "uint256"
        }
      ],
      "stateMutability": "view",
      "type": "function"
    },
    {
      "inputs": [
        {
          "internalType": "uint256",
          "name": "",
          "type": "uint256"
        }
      ],
      "name": "campaignExist",
      "outputs": [
        {
          "internalType": "bool",
          "name": "",
          "type": "bool"
        }
      ],
      "stateMutability": "view",
      "type": "function"
    },
    {
      "inputs": [],
      "name": "campaignTax",
      "outputs": [
        {
          "internalType": "uint256",
          "name": "",
          "type": "uint256"
        }
      ],
      "stateMutability": "view",
      "type": "function"
    },
    {
      "inputs": [
        {
          "internalType": "uint256",
          "name": "_taxPct",
          "type": "uint256"
        }
      ],
      "name": "changeTax",
      "outputs": [],
      "stateMutability": "nonpayable",
      "type": "function"
    },
    {
      "inputs": [
        {
          "internalType": "string",
          "name": "title",
          "type": "string"
        },
        {
          "internalType": "string",
          "name": "description",
          "type": "string"
        },
        {
          "internalType": "string",
          "name": "imageURL",
          "type": "string"
        },
        {
          "internalType": "uint256",
          "name": "cost",
          "type": "uint256"
        },
        {
          "internalType": "uint256",
          "name": "expiresAt",
          "type": "uint256"
        }
      ],
      "name": "createCampaign",
      "outputs": [
        {
          "internalType": "bool",
          "name": "",
          "type": "bool"
        }
      ],
      "stateMutability": "nonpayable",
      "type": "function"
    },
    {
      "inputs": [
        {
          "internalType": "uint256",
          "name": "id",
          "type": "uint256"
        }
      ],
      "name": "deleteCampaign",
      "outputs": [
        {
          "internalType": "bool",
          "name": "",
          "type": "bool"
        }
      ],
      "stateMutability": "nonpayable",
      "type": "function"
    },
    {
      "inputs": [
        {
          "internalType": "uint256",
          "name": "id",
          "type": "uint256"
        }
      ],
      "name": "donateCampaign",
      "outputs": [
        {
          "internalType": "bool",
          "name": "",
          "type": "bool"
        }
      ],
      "stateMutability": "payable",
      "type": "function"
    },
    {
      "inputs": [
        {
          "internalType": "uint256",
          "name": "id",
          "type": "uint256"
        }
      ],
      "name": "getCampaign",
      "outputs": [
        {
          "components": [
            {
              "internalType": "uint256",
              "name": "id",
              "type": "uint256"
            },
            {
              "internalType": "address",
              "name": "owner",
              "type": "address"
            },
            {
              "internalType": "string",
              "name": "title",
              "type": "string"
            },
            {
              "internalType": "string",
              "name": "description",
              "type": "string"
            },
            {
              "internalType": "string",
              "name": "imageURL",
              "type": "string"
            },
            {
              "internalType": "uint256",
              "name": "cost",
              "type": "uint256"
            },
            {
              "internalType": "uint256",
              "name": "raised",
              "type": "uint256"
            },
            {
              "internalType": "uint256",
              "name": "timestamp",
              "type": "uint256"
            },
            {
              "internalType": "uint256",
              "name": "expiresAt",
              "type": "uint256"
            },
            {
              "internalType": "uint256",
              "name": "donors",
              "type": "uint256"
            },
            {
              "internalType": "enum CampaignFactory.statusEnum",
              "name": "status",
              "type": "uint8"
            }
          ],
          "internalType": "struct CampaignFactory.campaignStruct",
          "name": "",
          "type": "tuple"
        }
      ],
      "stateMutability": "view",
      "type": "function"
    },
    {
      "inputs": [],
      "name": "getCampaigns",
      "outputs": [
        {
          "components": [
            {
              "internalType": "uint256",
              "name": "id",
              "type": "uint256"
            },
            {
              "internalType": "address",
              "name": "owner",
              "type": "address"
            },
            {
              "internalType": "string",
              "name": "title",
              "type": "string"
            },
            {
              "internalType": "string",
              "name": "description",
              "type": "string"
            },
            {
              "internalType": "string",
              "name": "imageURL",
              "type": "string"
            },
            {
              "internalType": "uint256",
              "name": "cost",
              "type": "uint256"
            },
            {
              "internalType": "uint256",
              "name": "raised",
              "type": "uint256"
            },
            {
              "internalType": "uint256",
              "name": "timestamp",
              "type": "uint256"
            },
            {
              "internalType": "uint256",
              "name": "expiresAt",
              "type": "uint256"
            },
            {
              "internalType": "uint256",
              "name": "donors",
              "type": "uint256"
            },
            {
              "internalType": "enum CampaignFactory.statusEnum",
              "name": "status",
              "type": "uint8"
            }
          ],
          "internalType": "struct CampaignFactory.campaignStruct[]",
          "name": "",
          "type": "tuple[]"
        }
      ],
      "stateMutability": "view",
      "type": "function"
    },
    {
      "inputs": [
        {
          "internalType": "uint256",
          "name": "id",
          "type": "uint256"
        }
      ],
      "name": "getDonors",
      "outputs": [
        {
          "components": [
            {
              "internalType": "address",
              "name": "owner",
              "type": "address"
            },
            {
              "internalType": "uint256",
              "name": "contribution",
              "type": "uint256"
            },
            {
              "internalType": "uint256",
              "name": "timestamp",
              "type": "uint256"
            },
            {
              "internalType": "bool",
              "name": "refunded",
              "type": "bool"
            }
          ],
          "internalType": "struct CampaignFactory.donorStruct[]",
          "name": "",
          "type": "tuple[]"
        }
      ],
      "stateMutability": "view",
      "type": "function"
    },
    {
      "inputs": [],
      "name": "owner",
      "outputs": [
        {
          "internalType": "address",
          "name": "",
          "type": "address"
        }
      ],
      "stateMutability": "view",
      "type": "function"
    },
    {
      "inputs": [
        {
          "internalType": "uint256",
          "name": "id",
          "type": "uint256"
        }
      ],
      "name": "payOutCampaign",
      "outputs": [
        {
          "internalType": "bool",
          "name": "",
          "type": "bool"
        }
      ],
      "stateMutability": "nonpayable",
      "type": "function"
    },
    {
      "inputs": [],
      "name": "stats",
      "outputs": [
        {
          "internalType": "uint256",
          "name": "totalCampaigns",
          "type": "uint256"
        },
        {
          "internalType": "uint256",
          "name": "totalDonors",
          "type": "uint256"
        },
        {
          "internalType": "uint256",
          "name": "totalDonations",
          "type": "uint256"
        }
      ],
      "stateMutability": "view",
      "type": "function"
    },
    {
      "inputs": [
        {
          "internalType": "uint256",
          "name": "id",
          "type": "uint256"
        },
        {
          "internalType": "string",
          "name": "title",
          "type": "string"
        },
        {
          "internalType": "string",
          "name": "description",
          "type": "string"
        },
        {
          "internalType": "string",
          "name": "imageURL",
          "type": "string"
        },
        {
          "internalType": "uint256",
          "name": "expiresAt",
          "type": "uint256"
        }
      ],
      "name": "updateCampaign",
      "outputs": [
        {
          "internalType": "bool",
          "name": "",
          "type": "bool"
        }
      ],
      "stateMutability": "nonpayable",
      "type": "function"
    }
  ],
  "bytecode": "0x608060405234801561001057600080fd5b5060405161218438038061218483398101604081905261002f91610049565b600080546001600160a01b03191633179055600155610062565b60006020828403121561005b57600080fd5b5051919050565b612113806100716000396000f3fe6080604052600436106100e85760003560e01c8063759701931161008a578063a6b0363311610059578063a6b0363314610283578063b69ef8a8146102a5578063d80528ae146102bb578063dfa8a381146102f557600080fd5b806375970193146101f85780638da5cb5b146102185780638ffff8b014610250578063980f2e661461026357600080fd5b80633e45c8af116100c65780633e45c8af146101735780635598f8cc146101955780635a84d1b0146101c25780637274e30d146101e257600080fd5b806302749831146100ed57806329516511146101165780633dfbfca914610143575b600080fd5b3480156100f957600080fd5b5061010360015481565b6040519081526020015b60405180910390f35b34801561012257600080fd5b50610136610131366004611ba6565b610325565b60405161010d9190611bbf565b34801561014f57600080fd5b5061016361015e366004611cd1565b6103c7565b604051901515815260200161010d565b34801561017f57600080fd5b5061019361018e366004611ba6565b610662565b005b3480156101a157600080fd5b506101b56101b0366004611ba6565b6106b7565b60405161010d9190611eb5565b3480156101ce57600080fd5b506101636101dd366004611ba6565b610998565b3480156101ee57600080fd5b5061010360025481565b34801561020457600080fd5b50610163610213366004611ba6565b610abe565b34801561022457600080fd5b50600054610238906001600160a01b031681565b6040516001600160a01b03909116815260200161010d565b61016361025e366004611ba6565b610c7b565b34801561026f57600080fd5b5061016361027e366004611ecf565b611044565b34801561028f57600080fd5b506102986114a8565b60405161010d9190611f69565b3480156102b157600080fd5b5061010360035481565b3480156102c757600080fd5b506004546005546006546102da92919083565b6040805193845260208401929092529082015260600161010d565b34801561030157600080fd5b50610163610310366004611ba6565b600a6020526000908152604090205460ff1681565b606060096000838152602001908152602001600020805480602002602001604051908101604052809291908181526020016000905b828210156103bc576000848152602090819020604080516080810182526004860290920180546001600160a01b03168352600180820154848601526002820154928401929092526003015460ff1615156060830152908352909201910161035a565b505050509050919050565b6000600786815481106103dc576103dc611fcb565b60009182526020909120600b90910201600101546001600160a01b0316331461043b5760405162461bcd60e51b815260206004820152600c60248201526b155b985d5d1a1bdc9a5e995960a21b60448201526064015b60405180910390fd5b60008551116104845760405162461bcd60e51b81526020600482015260156024820152745469746c652063616e6e6f7420626520656d70747960581b6044820152606401610432565b60008451116104d55760405162461bcd60e51b815260206004820152601b60248201527f4465736372697074696f6e2063616e6e6f7420626520656d70747900000000006044820152606401610432565b60008351116105215760405162461bcd60e51b8152602060048201526018602482015277496d61676555524c2063616e6e6f7420626520656d70747960401b6044820152606401610432565b846007878154811061053557610535611fcb565b90600052602060002090600b02016002019080519060200190610559929190611a9a565b50836007878154811061056e5761056e611fcb565b90600052602060002090600b02016003019080519060200190610592929190611a9a565b5082600787815481106105a7576105a7611fcb565b90600052602060002090600b020160040190805190602001906105cb929190611a9a565b5081600787815481106105e0576105e0611fcb565b90600052602060002090600b020160080181905550336001600160a01b03166000805160206120be833981519152874260405161064e929190918252606060208301819052600f908301526e141493d29150d50815541110551151608a1b6080830152604082015260a00190565b60405180910390a250600195945050505050565b6000546001600160a01b031633146106b25760405162461bcd60e51b81526020600482015260136024820152726f776e6572207265736572766564206f6e6c7960681b6044820152606401610432565b600155565b6106bf611b1e565b6000828152600a602052604090205460ff166107125760405162461bcd60e51b815260206004820152601260248201527110d85b5c185a59db881b9bdd08199bdd5b9960721b6044820152606401610432565b6007828154811061072557610725611fcb565b90600052602060002090600b020160405180610160016040529081600082015481526020016001820160009054906101000a90046001600160a01b03166001600160a01b03166001600160a01b0316815260200160028201805461078890611fe1565b80601f01602080910402602001604051908101604052809291908181526020018280546107b490611fe1565b80156108015780601f106107d657610100808354040283529160200191610801565b820191906000526020600020905b8154815290600101906020018083116107e457829003601f168201915b5050505050815260200160038201805461081a90611fe1565b80601f016020809104026020016040519081016040528092919081815260200182805461084690611fe1565b80156108935780601f1061086857610100808354040283529160200191610893565b820191906000526020600020905b81548152906001019060200180831161087657829003601f168201915b505050505081526020016004820180546108ac90611fe1565b80601f01602080910402602001604051908101604052809291908181526020018280546108d890611fe1565b80156109255780601f106108fa57610100808354040283529160200191610925565b820191906000526020600020905b81548152906001019060200180831161090857829003601f168201915b505050918352505060058201546020820152600682015460408201526007820154606082015260088201546080820152600982015460a0820152600a82015460c09091019060ff16600481111561097e5761097e611db8565b600481111561098f5761098f611db8565b90525092915050565b60006001600783815481106109af576109af611fcb565b60009182526020909120600a600b90920201015460ff1660048111156109d7576109d7611db8565b14610a245760405162461bcd60e51b815260206004820152601b60248201527f43616d706169676e206e6f206c6f6e67657220415050524f56454400000000006044820152606401610432565b60078281548110610a3757610a37611fcb565b60009182526020909120600b90910201600101546001600160a01b0316331480610a6b57506000546001600160a01b031633145b610aad5760405162461bcd60e51b8152602060048201526013602482015272556e617574686f72697a656420456e7469747960681b6044820152606401610432565b610ab682611743565b506001919050565b60008060078381548110610ad457610ad4611fcb565b60009182526020909120600a600b90920201015460ff166004811115610afc57610afc611db8565b14610b495760405162461bcd60e51b815260206004820152601960248201527f43616d706169676e206e6f206c6f6e676572206f70656e6564000000000000006044820152606401610432565b60078281548110610b5c57610b5c611fcb565b60009182526020909120600b90910201600101546001600160a01b0316331480610b9057506000546001600160a01b031633145b610bd25760405162461bcd60e51b8152602060048201526013602482015272556e617574686f72697a656420456e7469747960681b6044820152606401610432565b600360078381548110610be757610be7611fcb565b60009182526020909120600a600b9092020101805460ff19166001836004811115610c1457610c14611db8565b0217905550610c22826118c7565b604080518381526060602082018190526010908201526f10d05354105251d3881111531155115160821b60808201524281830152905133916000805160206120be833981519152919081900360a00190a2506001919050565b6000803411610ccc5760405162461bcd60e51b815260206004820152601f60248201527f4574686572206d7573792062652067726561746572207468656e207a65726f006044820152606401610432565b6000828152600a602052604090205460ff16610d1f5760405162461bcd60e51b815260206004820152601260248201527110d85b5c185a59db881b9bdd08199bdd5b9960721b6044820152606401610432565b600060078381548110610d3457610d34611fcb565b60009182526020909120600a600b90920201015460ff166004811115610d5c57610d5c611db8565b14610da95760405162461bcd60e51b815260206004820152601a60248201527f2043616d706169676e206e6f206c6f676e6572206f70656e65640000000000006044820152606401610432565b600160046001016000828254610dbf9190612032565b909155505060068054349190600090610dd9908490612032565b925050819055503460078381548110610df457610df4611fcb565b90600052602060002090600b02016006016000828254610e149190612032565b92505081905550600160078381548110610e3057610e30611fcb565b90600052602060002090600b02016009016000828254610e509190612032565b9091555050600082815260096020908152604080832081516080808201845233808352348387019081524284870181815260608087018b8152885460018082018b55998d529b8b902097516004909c0290970180546001600160a01b0319166001600160a01b03909c169b909b178b559251968a01969096559451600289015592516003909701805460ff1916971515979097179096558351888152948501829052600791850191909152661113d39055115160ca1b90840152908201526000805160206120be8339815191529060a00160405180910390a260078281548110610f3c57610f3c611fcb565b90600052602060002090600b02016005015460078381548110610f6157610f61611fcb565b90600052602060002090600b0201600601541061100457600160078381548110610f8d57610f8d611fcb565b60009182526020909120600a600b9092020101805460ff19166001836004811115610fba57610fba611db8565b021790555060078281548110610fd257610fd2611fcb565b90600052602060002090600b02016006015460036000828254610ff59190612032565b90915550610ab6905082611743565b6007828154811061101757611017611fcb565b90600052602060002090600b0201600801544210610ab657600160078381548110610f8d57610f8d611fcb565b60008086511161108e5760405162461bcd60e51b81526020600482015260156024820152745469746c652063616e6e6f7420626520656d70747960581b6044820152606401610432565b60008551116110df5760405162461bcd60e51b815260206004820152601b60248201527f4465736372697074696f6e2063616e6e6f7420626520656d70747900000000006044820152606401610432565b600084511161112b5760405162461bcd60e51b8152602060048201526018602482015277496d61676555524c2063616e6e6f7420626520656d70747960401b6044820152606401610432565b600083116111715760405162461bcd60e51b8152602060048201526013602482015272436f73742063616e6e6f74206265207a65726f60681b6044820152606401610432565b611179611b1e565b600254815233602080830191825260408301898152606084018990526080840188905260a084018790524260e085015261010084018690526007805460018101825560009190915284517fa66cc928b5edb82af9bd49922954155ab7b0942694bea4ce44661d9a8736c688600b90920291820190815593517fa66cc928b5edb82af9bd49922954155ab7b0942694bea4ce44661d9a8736c689820180546001600160a01b0319166001600160a01b0390921691909117905590518051859493611266937fa66cc928b5edb82af9bd49922954155ab7b0942694bea4ce44661d9a8736c68a01920190611a9a565b5060608201518051611282916003840191602090910190611a9a565b506080820151805161129e916004840191602090910190611a9a565b5060a0820151600582015560c0820151600682015560e0820151600782015561010082015160088201556101208201516009820155610140820151600a8201805460ff191660018360048111156112f7576112f7611db8565b021790555050600280546000908152600a602090815260408083208054600160ff1990911681179091553384526008835281842080548083018255908552938390208751600b909502019384558683015190840180546001600160a01b0319166001600160a01b039092169190911790558501518051869550929361138493908501929190910190611a9a565b50606082015180516113a0916003840191602090910190611a9a565b50608082015180516113bc916004840191602090910190611a9a565b5060a0820151600582015560c0820151600682015560e0820151600782015561010082015160088201556101208201516009820155610140820151600a8201805460ff1916600183600481111561141557611415611db8565b021790555050506001600460000160008282546114329190612032565b90915550506002805433916000805160206120be833981519152919060006114598361204a565b9091555060408051918252606060208301819052600f908301526e141493d29150d50810d49150551151608a1b6080830152429082015260a00160405180910390a25060019695505050505050565b60606007805480602002602001604051908101604052809291908181526020016000905b8282101561173a5760008481526020908190206040805161016081018252600b86029092018054835260018101546001600160a01b0316938301939093526002830180549293929184019161152090611fe1565b80601f016020809104026020016040519081016040528092919081815260200182805461154c90611fe1565b80156115995780601f1061156e57610100808354040283529160200191611599565b820191906000526020600020905b81548152906001019060200180831161157c57829003601f168201915b505050505081526020016003820180546115b290611fe1565b80601f01602080910402602001604051908101604052809291908181526020018280546115de90611fe1565b801561162b5780601f106116005761010080835404028352916020019161162b565b820191906000526020600020905b81548152906001019060200180831161160e57829003601f168201915b5050505050815260200160048201805461164490611fe1565b80601f016020809104026020016040519081016040528092919081815260200182805461167090611fe1565b80156116bd5780601f10611692576101008083540402835291602001916116bd565b820191906000526020600020905b8154815290600101906020018083116116a057829003601f168201915b505050918352505060058201546020820152600682015460408201526007820154606082015260088201546080820152600982015460a0820152600a82015460c09091019060ff16600481111561171657611716611db8565b600481111561172757611727611db8565b81525050815260200190600101906114cc565b50505050905090565b60006007828154811061175857611758611fcb565b90600052602060002090600b0201600601549050600060646001548361177e9190612065565b6117889190612084565b905060046007848154811061179f5761179f611fcb565b60009182526020909120600a600b9092020101805460ff191660018360048111156117cc576117cc611db8565b0217905550611813600784815481106117e7576117e7611fcb565b600091825260209091206001600b9092020101546001600160a01b031661180e83856120a6565b611a35565b600054611829906001600160a01b031682611a35565b6007838154811061183c5761183c611fcb565b90600052602060002090600b0201600601546003600082825461185f91906120a6565b909155505060408051848152606060208201819052601a908201527f43414d504149474e2050414944204f555420444f4e4154494f4e00000000000060808201524281830152905133916000805160206120be833981519152919081900360a00190a2505050565b60005b600082815260096020526040902054811015611a3157600082815260096020526040812080548390811061190057611900611fcb565b6000918252602080832060049092029091015485835260099091526040822080546001600160a01b039092169350908490811061193f5761193f611fcb565b9060005260206000209060040201600101549050600160096000868152602001908152602001600020848154811061197957611979611fcb565b906000526020600020906004020160030160006101000a81548160ff021916908315150217905550426009600086815260200190815260200160002084815481106119c6576119c6611fcb565b9060005260206000209060040201600201819055506119e58282611a35565b6001600460010160008282546119fb91906120a6565b909155505060068054829190600090611a159084906120a6565b9250508190555050508080611a299061204a565b9150506118ca565b5050565b6000826001600160a01b03168260405160006040518083038185875af1925050503d8060008114611a82576040519150601f19603f3d011682016040523d82523d6000602084013e611a87565b606091505b5050905080611a9557600080fd5b505050565b828054611aa690611fe1565b90600052602060002090601f016020900481019282611ac85760008555611b0e565b82601f10611ae157805160ff1916838001178555611b0e565b82800160010185558215611b0e579182015b82811115611b0e578251825591602001919060010190611af3565b50611b1a929150611b91565b5090565b6040518061016001604052806000815260200160006001600160a01b03168152602001606081526020016060815260200160608152602001600081526020016000815260200160008152602001600081526020016000815260200160006004811115611b8c57611b8c611db8565b905290565b5b80821115611b1a5760008155600101611b92565b600060208284031215611bb857600080fd5b5035919050565b602080825282518282018190526000919060409081850190868401855b82811015611c2157815180516001600160a01b031685528681015187860152858101518686015260609081015115159085015260809093019290850190600101611bdc565b5091979650505050505050565b634e487b7160e01b600052604160045260246000fd5b600082601f830112611c5557600080fd5b813567ffffffffffffffff80821115611c7057611c70611c2e565b604051601f8301601f19908116603f01168101908282118183101715611c9857611c98611c2e565b81604052838152866020858801011115611cb157600080fd5b836020870160208301376000602085830101528094505050505092915050565b600080600080600060a08688031215611ce957600080fd5b85359450602086013567ffffffffffffffff80821115611d0857600080fd5b611d1489838a01611c44565b95506040880135915080821115611d2a57600080fd5b611d3689838a01611c44565b94506060880135915080821115611d4c57600080fd5b50611d5988828901611c44565b95989497509295608001359392505050565b6000815180845260005b81811015611d9157602081850181015186830182015201611d75565b81811115611da3576000602083870101525b50601f01601f19169290920160200192915050565b634e487b7160e01b600052602160045260246000fd5b60058110611dec57634e487b7160e01b600052602160045260246000fd5b9052565b6000610160825184526020830151611e1360208601826001600160a01b03169052565b506040830151816040860152611e2b82860182611d6b565b91505060608301518482036060860152611e458282611d6b565b91505060808301518482036080860152611e5f8282611d6b565b91505060a083015160a085015260c083015160c085015260e083015160e085015261010080840151818601525061012080840151818601525061014080840151611eab82870182611dce565b5090949350505050565b602081526000611ec86020830184611df0565b9392505050565b600080600080600060a08688031215611ee757600080fd5b853567ffffffffffffffff80821115611eff57600080fd5b611f0b89838a01611c44565b96506020880135915080821115611f2157600080fd5b611f2d89838a01611c44565b95506040880135915080821115611f4357600080fd5b50611f5088828901611c44565b9598949750949560608101359550608001359392505050565b6000602080830181845280855180835260408601915060408160051b870101925083870160005b82811015611fbe57603f19888603018452611fac858351611df0565b94509285019290850190600101611f90565b5092979650505050505050565b634e487b7160e01b600052603260045260246000fd5b600181811c90821680611ff557607f821691505b6020821081141561201657634e487b7160e01b600052602260045260246000fd5b50919050565b634e487b7160e01b600052601160045260246000fd5b600082198211156120455761204561201c565b500190565b600060001982141561205e5761205e61201c565b5060010190565b600081600019048311821515161561207f5761207f61201c565b500290565b6000826120a157634e487b7160e01b600052601260045260246000fd5b500490565b6000828210156120b8576120b861201c565b50039056feaee8e5d3bbb2f71a951b5632cee20f7ac487b9f8ab4f66a236f7694b13af7c6aa2646970667358221220152384395ca3e508da388ae9c8092d543e90b65aa4a7cfbe9629e97a149c071164736f6c634300080b0033",
  "linkReferences": {},
  "deployedLinkReferences": {}
}